:100000000C9493000C94BA000C94BA000C94BA00AF
:100010000C94BA000C94BA000C94BA000C94E3014E
:100020000C94BA000C94BA000C94BA000C94BA0068
:100030000C94BA000C94BA000C94BA000C94BA0058
:100040000C94F6000C94BA000C94BA000C94BA000C
:100050000C94BC000C94BA000C94BA000C94BA0036
:100060000C94BA000C94BA000C94BA000C94BA0028
:100070000C94BA000C94BA000C94BA000C94BA0018
:100080000C94BA000C94BA000C94BA00206B420095
:10009000666F756E642000746573742E2E2E006674
:1000A000696C6C2E2E2E0052414D20636865636B87
:1000B000004241534943004241534943001010104C
:1000C000101010101018181818181818181C1C1CCC
:1000D0001C1C1C1C1C1E1E1E1E1E1E1E1E1F1F1F47
:1000E0001F1F1F1F1F0F10101013171F1E1F0000B0
:1000F00000181C1E0E1F000000000001021E01015E
:1001000001010111091E1F17131010100F0E1E1CE4
:10011000180F12141F020100001E09051F0911010A
:10012000010101011E0011241FBECFEFD0E4DEBF8C
:10013000CDBFE7E9FAE28AEA91E48193E030F9077A
:10014000E0F313E0A0E0B1E0EAE7F4E500E00BBF84
:1001500002C007900D92AA3AB107D9F72AE2AAEA9B
:10016000B3E001C01D92A739B207E1F70E94302623
:100170000C943B2A0C9400002F932FB72F932BB78E
:100180002F934F935F938F939F93EF93FF932091C0
:10019000C6008091B1039091B203AC014F5F5F4FF5
:1001A0005093B2034093B1038B549C4FFC012083C6
:1001B0008091B1039091B20393709093B2038093B6
:1001C000B1038091AF039091B00301969093B00377
:1001D0008093AF03FF91EF919F918F915F914F912A
:1001E0002F912BBF2F912FBF2F9118951F921FB6C4
:1001F0001F9211248F939F93AF93BF938091AB0372
:100200009091AC03A091AD03B091AE030196A11DF6
:10021000B11D8093AB039093AC03A093AD03B09357
:10022000AE038091AA0381508093AA03BF91AF913E
:100230009F918F911F901FBE1F90189582E084BDE3
:1002400085B5826085BD8FE187BD08951092C50098
:1002500087E78093C40088E98093C10086E080939B
:10026000C20008959091C00095FFFCCF8093C60016
:1002700080E090E008950E94320180E090E00895CF
:100280008091AF039091B00318161906CCF7F8943B
:100290002091B3033091B403F901EB54FC4F8081FA
:1002A0002F5F3F4F33703093B4032093B3032091FB
:1002B000AF033091B003215031093093B003209344
:1002C000AF03789408958F929F92AF92BF92CF928E
:1002D000DF92EF92FF9287EA90E00E941F0B61E0AD
:1002E00080E00E94AE0A8FE990E00E941F0BC12CB3
:1002F000D12C7601C701B6010E94DF096CEF73E0D3
:1003000080E090E00E94080A2FEFC21AD20AE20AA7
:10031000F20AC11488E0D806E104F10459F70E94FA
:10032000940962E080E00E94AE0A87E990E00E94B2
:100330001F0BC12CD12C76010E94B1094B015C012D
:100340006CEF73E080E090E00E94080AC814D904C2
:10035000EA04FB0459F49FEFC91AD90AE90AF90A19
:10036000C11428E0D206E104F10431F70E94940997
:1003700063E080E00E94AE0A80E990E00E941F0BDB
:100380004AE062EC77E0C6010E94142782EC97E015
:100390000E94B90A8CE890E00E941F0B8FEF9FE744
:1003A00020E7815090402040E1F700C000000E940B
:1003B000580AC601FF90EF90DF90CF90BF90AF90AA
:1003C0009F908F9008951F921FB61F9211242F9314
:1003D0002BB72F933F934F935F938F939F93EF93FD
:1003E000FF938AB199B1892B8095982F907F9115B1
:1003F00009F441C02091BD07211138C086FF49C0D2
:100400002091B1033091B203A9014F5F5F4F509328
:10041000B2034093B1032B543C4F92E7F901908310
:100420002091B1033091B203A9014F5F5F4F509308
:10043000B2034093B1032B543C4F9DE0F9019083EC
:100440002091B1033091B20333703093B203209303
:10045000B1032091AF033091B0032E5F3F4F309333
:10046000B0032093AF0391E09093BD0785FF03C0D5
:1004700081E08093BC07FF91EF919F918F915F91F5
:100480004F913F912F912BBF2F911F901FBE1F9017
:10049000189584FF0FC02091B1033091B203A901D8
:1004A0004F5F5F4F5093B2034093B1032B543C4FC7
:1004B00090E7B4CF97FFDACF2091B1033091B20328
:1004C000A9014F5F5F4F5093B2034093B1032B5488
:1004D0003C4F96E6A3CF82E291E00E94482788E352
:1004E00091E00E9448278EE591E00E94482784E72A
:1004F00091E00E9448278DE991E00E9448278FEB08
:1005000091E00E94482786EE91E00E94482785E20C
:1005100092E00E9448278DE392E00E94482787E5F9
:1005200092E00E94482782E791E00C944827CF92FE
:10053000DF92EF92FF92E2ECF7E080EADF011D929A
:100540008A95E9F71092BE071092BF071092C00774
:100550001092C1070E949B09C12CD12C7601E39413
:1005600080E00E94A809B1E0CB1AD108E108F108A7
:10057000B9F740E852E061E080E00E94C50AFF90D0
:10058000EF90DF90CF900C949B09FC01EE53F84F55
:10059000808108957091640820916308A22FB0E0D3
:1005A000AB59B74F60E080E031E02717E8F42F5FE8
:1005B0009D919132C0F1311571F08F5F843098F4C4
:1005C000482F4150550BFA01EE0FFF1FE854F74F2B
:1005D0001182108260E030ED390F373120F436ECB3
:1005E000390F373020F48FEF20936308089591344A
:1005F00008F09750482F4150550BFA01EE0FFF1F9E
:10060000E854F74F4081518134E0440F551F3A952B
:10061000E1F79053490F511D518340836F5F65305F
:1006200010F730E0C2CF41E0903209F040E0342BC7
:10063000BCCF9B01FC0184E0489FA001112441151F
:10064000510509F4089544505109C901042E02C00E
:10065000969587950A94E2F78F7090E3980F9A33F6
:1006600010F097E3980F9193EACF40E550E060E2F5
:1006700070E085E698E00E94B4268AE380936908DA
:100680001092B5080895AF92BF92CF92DF92EF9289
:10069000FF921F93CF93DF93EC016C0180E8C80EAB
:1006A000D11C0E94350344E0BE0185E698E00E941B
:1006B00019038CE6E82E88E0F82E9EE9A92E98E032
:1006C000B92E0E94A009182F682F70E042E0C701E0
:1006D0000E94190380EE810F8F3508F01EE2F501AC
:1006E00011935F01F3E0EF0EF11C8CE9E81688E04E
:1006F000F80639F785E698E01092AE089F938F933D
:100700000E942E2782E791E00E94482760960F9072
:100710000F90CC15DD0529F6CE01DF91CF911F9109
:10072000FF90EF90DF90CF90BF90AF900895FC01C5
:100730008081813408F087508295807F9181913447
:1007400008F097508053890F0895EF92FF920F930E
:100750001F93CF93DF93CDB7DEB761970FB6F894B1
:10076000DEBF0FBECDBF81E1E1E9F2E0DE0111960F
:1007700001900D928A95E1F710E0E12EF12CFE0137
:100780003196E10FF11D0081011119C0812F90E018
:10079000A0E0B0E08093BE079093BF07A093C0078E
:1007A000B093C10761960FB6F894DEBF0FBECDBF00
:1007B000DF91CF911F910F91FF90EF900895802FBF
:1007C0000E94A809F701EE53F84F00831F5FD5CFB1
:1007D0003F924F925F926F927F928F929F92AF92D1
:1007E000BF92CF92DF92EF92FF920F931F93CF931E
:1007F000DF93CDB7DEB7C058D1090FB6F894DEBF8E
:100800000FBECDBF7C010E9494098091BE079091DC
:10081000BF07A091C007B091C1074C015D0197E0EF
:10082000B694A794979487949A95D1F7182F1F7729
:10083000C7010E94271867E7C7010E94A118412C31
:10084000512C32016E0181E8C80ED11C48145904A4
:100850006A047B0481F5111599F0CE0101967C01A3
:100860006C015C010E94A009F60181936F018E2F3B
:100870008E198117B8F3612F70E0C5010E94C6156B
:100880000E941618C058DF4F0FB6F894DEBF0FBE97
:10089000CDBFDF91CF911F910F91FF90EF90DF902F
:1008A000CF90BF90AF909F908F907F906F905F9010
:1008B0004F903F900895FE0131967F013E2E0F2DFF
:1008C0000E94A009F70181937F01EC15FD05C1F796
:1008D00060E870E0832D902F0E94C615FFEF4F1A3D
:1008E0005F0A6F0A7F0AB2CFFC012081818190E00C
:1008F00087FF04C091E0281390E09195828128132E
:1009000090E0880F880B89230895EF92FF920F9350
:100910001F93CF93DF934BE050E060E270E08EE0F6
:1009200091E00E94B4268091C207E0E002E8833C97
:1009300011F4E0E101E8CE2FD0E0DE01AE53B84F74
:100940008C9181113DC00C0F1D2F111DC8018D53BD
:10095000984F7C010E947404811529F1F801EA5333
:10096000F84FAEE0B1E0ED018191803208F088836C
:10097000219691E0C631D907B9F7F7018191982FF7
:100980009076911521F08F7718968C931897119681
:1009900021E0A131B20791F7DF91CF911F910F9123
:1009A000FF90EF900895CD53D84FEEE0F1E089919C
:1009B00081118083319681E0E931F807C1F7ECCFEE
:1009C000EF5FF0E0EE53F84F8081AEE0B1E087FFDB
:1009D00022C0CE018A53984F4EE051E0DA01FC016B
:1009E0002191CF01203208F02C931196F1E0A6312D
:1009F000BF07A9F7CD53D84F8991982F90769115BD
:100A000019F08F77FA0180874F5F5F4FF1E0413136
:100A10005F0791F7C1CF819181118C93119621E0ED
:100A2000A631B207C1F7B8CF90B180B1892782FD56
:100A300006C0039B04C08091BC078115B1F3F894F4
:100A40008091AB039091AC03A091AD03B091AE0344
:100A500081159140A105B105B0F01092C00880E069
:100A60001092AB031092AC031092AD031092AE0340
:100A700078942091C0088093C00892B130E1932708
:100A800092B9820F08958091AB039091AC03A0912D
:100A9000AD03B091AE03E4CFCF93DF93D82FC62F31
:100AA00061E084E00E94AE0A8D2F0E94130B6C2F30
:100AB00082E0DF91CF910C94930BCF93DF93EC0105
:100AC00061E087E00E94AE0ACE53D84F8881398119
:100AD0002A8191E0333D09F090E0233D51F49115D6
:100AE00041F0833D31F487EB90E0DF91CF910C949E
:100AF0001F0B91E0363D09F090E0263D39F4911549
:100B000029F0863D19F481EB90E0EFCF8A890E94AD
:100B1000130B89890E94130B8AE30E942E0A8C8989
:100B20000E94130B8B89DF91CF910C94130B880FCC
:100B3000991F20E030E051E260E12817390708F002
:100B400008955093AA034091AA034111FCCF42B1EA
:100B5000462742B92F5F3F4FF0CF80E48093AA032E
:100B60008091AA038111FCCF82B190E1892782B9DB
:100B700080E48093AA038091AA038111FCCF82B103
:100B800090E1892782B9089580E48093AA03809137
:100B9000AA038111FCCF82B190E1892782B92FEF9E
:100BA0008FE191E0215080409040E1F700C00000CB
:100BB000089528E042E190E151E280FF16C0509391
:100BC000AA033091AA033111FCCF32B1392732B9CF
:100BD0005093AA033091AA033111FCCF32B13927C7
:100BE00032B986952A9549F708953EE63A95F1F788
:100BF00000C04093AA033091AA033111FCCF32B157
:100C0000392732B94093AA033091AA033111FCCF9E
:100C1000E5CF8F929F92AF92BF92CF92DF92EF92E9
:100C2000FF921F93CF93DF938091BE079091BF07F0
:100C3000A091C007B091C107892B8A2B8B2B71F42F
:100C40001092BD07DF91CF911F91FF90EF90DF9041
:100C5000CF90BF90AF909F908F90089580E090E0EC
:100C60000E945D05549A5C9880916E00826080932A
:100C70006E0088EE93E00E949705C1E0C12CD12C54
:100C800076018090BE079090BF07A090C007B090FB
:100C9000C107C814D904EA04FB0408F047C0A0E562
:100CA000B0E0A70196010E94A126A50194010E942F
:100CB0005126622F8C2F0E944C0584EB90E00E94FD
:100CC00097050E94AD058091BE079091BF07A09146
:100CD000C007B091C1078C199D09AE09BF098138C1
:100CE0009105A105B105C0F18C2F0E94D9050E9484
:100CF000AD0510E8D0E00E94A009D80F0E94D905E8
:100D00000E94AD051A95B9F78D2F0E94D9050E9452
:100D1000AD050E94C40520E8C20ED11CE11CF11CE7
:100D20008091BC07CF5F811509F4ABCF82B190E110
:100D3000892782B98FEF9FE925E0815090402040BC
:100D4000E1F700C00000149880916E008D7F8093C1
:100D50006E0054985C9A74CF8FEFC7CFCF93DF9318
:100D6000E091B60782E8E11511F0E0E181E8AE2FED
:100D7000B0E0AE53B84F9C91911101C0E80FEF5F06
:100D8000F0E0EE53F84F8081853DC9F488E097E0AC
:100D90000E949705D0E0C0E00E94AD05C13891F4F3
:100DA0008091C207833CA1F00E94A0090E94D9054E
:100DB000CF5FC23889F7DF91CF910C94C40584EBE3
:100DC00090E0E6CF0E94A009C11581F3D80FEECFC5
:100DD0008D2FECCF8F929F92AF92BF92CF92DF92E6
:100DE000EF92FF92CF938091C207833CF9F480E1A8
:100DF0008093B60781E190E00E945D058091BE0777
:100E00009091BF07A091C007B091C107892B8A2B91
:100E10008B2B79F41092BD07CF91FF90EF90DF906C
:100E2000CF90BF90AF909F908F9008951092B6078B
:100E3000E5CF549A5C9880916E00826080936E003A
:100E400088EE93E00E9497058091B607811509F41A
:100E500072C0C0E10E94A009CA95E1F7C1E080E13B
:100E6000C82ED12CE12CF12C8090BE079090BF07AA
:100E7000A090C007B090C107C814D904EA04FB04CD
:100E8000D8F4A0E5B0E0A70196010E94A126A50133
:100E900094010E945126622F8C2F0E944C05C6019E
:100EA0000E94AE0621E8C20ED11CE11CF11C80910B
:100EB000BC07CF5F8115C1F282B190E1892782B969
:100EC0008FEF9FE925E0815090402040E1F700C07E
:100ED0000000149880916E008D7F80936E0054986E
:100EE0005C9A98CFA0E5B0E0A70196010E94A126E8
:100EF000A50194010E945126622F8C2F0E944C055F
:100F0000C6010E94AE0682E8C80ED11CE11CF11C8D
:100F10008091BC07CF5F8111CFCF8090BE079090AA
:100F2000BF07A090C007B090C107C814D904EA0455
:100F3000FB04C0F2C1CFC1E0C12CD12C7601EDCFB2
:100F400042EA52E061E080E00E94C50A4CE852E0CB
:100F500062E086E00E94C50A0E9494098091BB0766
:100F6000811529F08150823020F00C948C0F0C9464
:100F7000EA060C9409060E94580A4DEA52E060E025
:100F800080E00E94C50A4BEB52E061E080E00E94E5
:100F9000C50A49EC52E062E080E00E94C50A4AEDD1
:100FA00052E063E080E00E94C50A2FEF8FE594E5F0
:100FB000215080409040E1F700C000000895CF9399
:100FC000DF93D82FC92F0E94580A4D2F5C2F63E062
:100FD00080E00E94C50A61E086E0DF91CF910C9429
:100FE000660BAC0160E082E00C94C50A0F931F937E
:100FF000CF93DF930E9497020E94940980E180932F
:10100000B6070E94A503569A5E98F8941092AB0317
:101010001092AC031092AD031092AE0378948091BD
:101020006E00826080936E00039B4CC000E0D0E0B5
:101030000E941405C091BC07C11157C08E5618E01C
:101040008333B0F70E9414058091BC07811108C05A
:101050000E941405C6958D3308F0C0681A9591F763
:101060008091BC0781117FC0D13809F441C0D111F2
:101070000C0F8091BE079091BF07A091C007B0915F
:10108000C107803A9105A105B10520F48E53984F10
:10109000FC01C0838C2F0E94A8098091BE0790910B
:1010A000BF07A091C007B091C1070196A11DB11D56
:1010B0008093BE079093BF07A093C007B093C1076A
:1010C000DF5FB6CF8091BC07811509F4ADCF56988C
:1010D0005E9A80916E008D7F80936E001092BD07A6
:1010E000DF91CF911F910F91089518E0C0E0AACF32
:1010F00081E0C01301C080E0C82FC1958091BC077A
:10110000811133C0DAE00E941405DA95E1F7039B00
:101110002CC08091BC07811128C0C11509F486CF6D
:101120004BEE52E061E082E00E94C50A569A5E985A
:10113000FFEF2FED80E1F15020408040E1F700C04B
:10114000000056985E9A9FEFEFEDF0E19150E0407D
:10115000F040E1F700C000008091BC07811531F339
:101160000E949702B4CFC0E0C9CFC111D9CF8091FE
:10117000B60790E08F579F4F4091BE075091BF0731
:101180006091C0077091C10784179507160617066E
:1011900008F09DCF0E9485048EE091E00E94F10747
:1011A0008EE091E00E94E80392CF64E872E08EE066
:1011B00091E00E94C4268091B50781110C94FF1024
:1011C0000C94F6070E94E6210E940C1E813039F033
:1011D00047EF52E061E082E00E94C50AF3CF0E942F
:1011E0006B020E94BB078091680088608093680052
:1011F00080EF8093730010E0CCE1D1E084E093E0D5
:101200000E94DF078EE091E00E94F10711110AC0F1
:1012100082E791E00E944827DF93CF930E942E2718
:101220000F900F9010926208109264080E94400183
:1012300090E00E94AC26909162088D3059F4109293
:10124000BC0791111CC01115B9F18091BE08909195
:10125000BF0858C0E091640821E02E0F2093640875
:10126000F0E0EB59F74F8083911106C0813220F0F6
:1012700080936208209363080E943201D7CF95348F
:1012800009F44CC060F49F3309F44BC09434D9F096
:101290009E3291F08FE390E00E9442270DC090357E
:1012A00069F0923539F09634A9F70E94710F1092C7
:1012B000BD0702C00E94D50810E0A0CF0E94A00781
:1012C0001092BC07F9CF0E94CA028093B7088F3FE3
:1012D00031F48FE390E00E94422711E08FCF0E940B
:1012E000940900E010E08091B8089091B9080817BF
:1012F000190778F082E791E00E9448278091B808AA
:101300009091B9080E9443039093BF088093BE0850
:10131000E4CF0E94A0090F5F1F4FE5CF0E94970204
:10132000CBCF0E946B02C8CF169A86E08A95F1F760
:1013300000001698089581B1836C81B90C949409CA
:1013400017B8119800C086B1119A179A1798089586
:101350009FEF97B988B9109800C0109A179A1798FC
:101360000895CF92DF92EF92FF920F931F93CF9346
:10137000DF9300D000D0CDB7DEB78E010F5F1F4FD7
:101380007E0185E0E80EF11C68010F5F1F4F0E948F
:10139000A009F60180830E151F05B1F769817A81D6
:1013A0008B819C810F900F900F900F90DF91CF91C8
:1013B0001F910F91FF90EF90DF90CF900895EF92E3
:1013C000FF920F931F93CF93DF9300D000D0CDB740
:1013D000DEB769837A838B839C838E010F5F1F4FF7
:1013E0007E0185E0E80EF11CF8010F5F1F4F808140
:1013F0000E94A8090E151F05B9F70F900F900F90C6
:101400000F90DF91CF911F910F91FF90EF90089572
:101410000F931F938B019C0180E090E0DC0180170B
:101420009107A207B30719F41F910F910895179A16
:1014300017980196A11DB11DF2CF5B9A86E08A959F
:10144000F1F700005B98089595B1907F95B995B13B
:1014500082958F70892B85B90C941D0ACF93C82F64
:101460005A9A0E94240A8C2F8295807F0E94240A17
:1014700083ED90E00197F1F700C00000CF9108954F
:101480008A3018F4805D0C942E0A895CFCCFCF93CF
:10149000C82F5A980E94240A8C2F8295807F0E9420
:1014A000240A81EC90E00197F1F700C0CF910895F4
:1014B00081E00E94470A8FEF93E20197F1F700C0A5
:1014C0000000089584B18F6084B985B1807F85B9AB
:1014D0008AB18C608AB98BB1837F8BB92FEF8FE192
:1014E00091E0215080409040E1F700C0000080E38F
:1014F0000E94240A8FEF99E50197F1F700C00000E0
:101500000E941D0A8FEF91E10197F1F700C00000E2
:101510000E941D0A8FEF91E10197F1F700C00000D2
:1015200080E20E94240A8FEF99E50197F1F700C04D
:10153000000088E20E94470A8CE00E94470A86E089
:101540000E94470A0C94580A82E00E94470A8FEFD3
:1015500093E20197F1F700C000000895643040F471
:10156000E62FF0E0E25EFE4F9081890F0C94470A6F
:101570000895CF93DF93EC018991811103C0DF912E
:10158000CF9108950E942E0AF7CFCF93DF93D42FE7
:10159000C52F0E94AE0A8D2F9C2FDF91CF910C9406
:1015A000B90A0F931F93CF93DF93C82F142FD0E066
:1015B000843640F08CE98C0FC85CD2E0843610F49D
:1015C000C82FD1E000E0CA3090F4633098F080E397
:1015D0008D0FD11101C0812F0E942E0AD02BD11561
:1015E00011F010E3100F812F0E942E0A05C00F5F2B
:1015F000CA50E9CF623091F380E38C0FDF91CF9135
:101600001F910F910C942E0A0F93CF93DF93C42F49
:10161000D22F0E94AE0A402F6D2F8C2FDF91CF91D9
:101620000F910C94D10ACF93C82F82958F700E948E
:10163000400A8C2F8F700E94400ACF910895CF935B
:10164000DF93EC01FE018491811103C0DF91CF9102
:1016500008950E942E0A2196F5CF0F931F93CF93E2
:10166000DF93EB01142F880F880F880F80640E948E
:10167000470ACE01810F911D8C01C017D10729F4B3
:10168000DF91CF911F910F91089589910E942E0AA9
:10169000F4CF0F931F93CF93DF93EB01042F880FA9
:1016A000880F880F80640E94470A0C0F1D2F111DA0
:1016B000C017D10729F4DF91CF911F910F910895A1
:1016C000FE0184910E942E0A2196F2CFCF93DF93E0
:1016D000D82FC62F40E465EE70E080E00E94490BF1
:1016E0006C2F8D2F0E94AE0A80E00E942E0A81E0AE
:1016F0000E942E0A82E00E942E0A83E00E942E0A97
:1017000061E06C0F8D2F0E94AE0A84E00E942E0AC9
:1017100085E00E942E0A86E00E942E0A87E0DF9173
:10172000CF910C942E0A0F931F93CF93DF93CDB7D5
:10173000DEB728970FB6F894DEBF0FBECDBF082FD7
:10174000162F48E26DEB70E080E00E94490B602F9D
:1017500080E00E94AE0A612F70E080E090E025E01A
:1017600030E040E050E00E94732629833A834B83A7
:101770005C836D8310E0412F50E060E070E01F5FFC
:1017800089819A81AB81BC81481759076A077B0719
:1017900084F08D810E942E0A103178F028960FB6C1
:1017A000F894DEBF0FBECDBFDF91CF911F910F9197
:1017B00008958FEF0E942E0ADECF80E20E942E0A4B
:1017C0001F5FEACF1F93CF93DF93E7E0FCE080E059
:1017D0009AE1DF019C011D9221503040E1F7E7ECD6
:1017E000F8E080E493E0DF019C011D92215030403D
:1017F000E1F71092C2081092C1081092C608109228
:10180000C50865E173E0CF010E94C42681E090E045
:101810009093C4088093C3080E94C11F811599F159
:101820001DE080915E2A811132C08091C50890919F
:10183000C608189FE001199FD00D1124C95FD34F2E
:1018400063E67AE2CE010E94C426CE010E94CB2636
:101850008091C5089091C60801969093C608809320
:10186000C5080E949D1F8111DCCF8091C308909113
:10187000C4082091C5083091C608820F931F909329
:10188000C2088093C108DF91CF911F91089563E64C
:101890007AE287EA93E00E94BB26892B11F38091BC
:1018A000C3089091C408189FE001199FD00D11241E
:1018B000C953D74F63E67AE2CE010E94C426CE0117
:1018C0000E940A278091C3089091C40801969093C2
:1018D000C4088093C308C5CFDF92EF92FF920F93A5
:1018E0001F93CF93DF93CDB7DEB72D970FB6F89444
:1018F000DEBF0FBECDBF2DE0E4E8F2E0CE010196E1
:10190000DC0101900D922A95E1F7209109260091C2
:101910000A2610910B26021B1109F12CE82ED92E54
:1019200040E852E06F2D80E00E94C50A8091C10816
:101930009091C20808171907C8F48091C3089091C4
:10194000C4080817190768F58DE0809FB001819FD2
:10195000700D11246953774F8E2D9D2D0E94C42642
:101960004E2D5D2D6F2D82E00E94C50AF3940F5F0E
:101970001F4F33E0F312D4CF41E253E060910926C8
:1019800081E00E94C50A2D960FB6F894DEBF0FBE07
:10199000CDBFDF91CF911F910F91FF90EF90DF901E
:1019A00008959801281B390BC9012DE0289FB0012B
:1019B000299F700D1124695F734FCECF9091072638
:1019C000911124C040E050E01092082690E060EDB4
:1019D00077E02AB139B1232B30E020953095207F74
:1019E0003327922B909308266150704091F74D3B1E
:1019F00022E0520730F0811521F081E08093072624
:101A000008954F5F5F4F9111DFCF08958FEF80935F
:101A1000082640E25EE42FEF8AB199B1892B90E06D
:101A200080959095807F9927282320930826415000
:101A3000504091F7211102C01092072608958AB1F3
:101A400099B1892B8095807F28EE33E09AB149B116
:101A5000942B9095907F911539F0891305C02150F2
:101A6000304029F0892FF2CF28EE33E0FBCF0895E4
:101A70001F93CF93DF9320910A2630910B268091FC
:101A8000C3089091C4082817390708F480C08091D2
:101A9000C1089091C208892B09F479C083E293E0D0
:101AA0000E94DF0744E353E061E082E00E94C50A40
:101AB0001092072680E00E94DE0C0E941F0D8034E9
:101AC00009F051C020910A2630910B268091C3085D
:101AD0009091C408281B390BCDE0C29FC001C39F61
:101AE000900D1124895F934F0E94271820910A2698
:101AF00030910B268091C3089091C408A901481B1E
:101B0000590B6091C1087091C208681B790BC49F82
:101B1000D001C59FB00D1124A95FB34FED012D96E3
:101B20004617570750F14091C5085091C6084150DB
:101B300051095093C6084093C508840F951F909390
:101B4000C2088093C1082817390769F42150310968
:101B500030930B2620930A2680910926811519F0CF
:101B600081508093092680E00E94DE0C81E493E09E
:101B7000DF91CF911F910C94DF071DE0FE010190D2
:101B80000D921A95E1F74F5F5F4FDE01C7CFDF91EE
:101B9000CF911F910895CF93DF93EC01DC010D905D
:101BA0000020E9F71197A81BB90BA330F8F0A35058
:101BB000BB0BCA0FDB1F43E050E0BE0182E593E0A0
:101BC0000E94D526892BB1F043E050E0BE0186E5A6
:101BD00093E00E94D526892B79F043E050E0BE01C6
:101BE0008AE593E00E94D526892B41F083E0DF91BE
:101BF000CF91089580E0FBCF81E0F9CF82E0F7CF6D
:101C00008F929F92BF92CF92DF92EF92FF920F93AB
:101C10001F93CF93DF93CDB7DEB7C058D1090FB66E
:101C2000F894DEBF0FBECDBF1092BE071092BF0763
:101C30001092C0071092C10764E872E08EE091E054
:101C40000E94C426E2ECF7E080EADF011D928A954B
:101C5000E9F780910A2690910B26009709F490C02D
:101C60002091C3083091C4088217930708F4B3C0C9
:101C700084E093E00E94DF0780910A2690910B2672
:101C80002091C3083091C408821B930B2DE0289F3C
:101C9000B001299F700D1124695F734F8EE091E0B0
:101CA0000E94C4268EE091E00E94F1078EE091E050
:101CB0000E94CB0D8093BB07549A5C9862E78EE03C
:101CC00091E00E94A1188091212690912226A09156
:101CD0002326B09124268093BE079093BF07A0933C
:101CE000C007B093C107AC01BD0197E07695679539
:101CF000579547959A95D1F74093B7075093B807F2
:101D00006093B9077093BA07B82EE894B7F80E94A9
:101D10009409C12CD12C76014E01B1E88B0E911C97
:101D20008091B7079091B807A091B907B091BA0711
:101D3000C816D906EA06FB06B8F1B11491F06B2D6E
:101D400070E08E010F5F1F4FC8010E94DA16780104
:101D5000D7018D917D010E94A8098E2D801B8B15C6
:101D6000B8F30E94940902EC17E00E94A009F80160
:101D700081938F01F8E002361F07B9F70E94161809
:101D800081E0C058DF4F0FB6F894DEBF0FBECDBF65
:101D9000DF91CF911F910F91FF90EF90DF90CF9047
:101DA000BF909F908F90089560E870E0CE010196FB
:101DB0000E94DA168E010F5F1F4FF80181918F018B
:101DC0000E94A80908151905C1F7FFEFCF1ADF0A0D
:101DD000EF0AFF0AA5CF2DE0289F8001299F100D53
:101DE00011240953174FB8018EE593E00E94BB26DA
:101DF0009C0191E0232B09F090E091959093B50719
:101E0000C8010E94EF111092092610920B26109221
:101E10000A2680E0B6CFCF9310927300C2E00E94F2
:101E2000E20B0E946C0C81E00E94DE0C0E941F0DF0
:101E30008093082685FF2FC080910A2690910B265B
:101E40002091C1083091C2082150310982179307AF
:101E500078F4019690930B2680930A2680910926A8
:101E60008F5F833018F48093092602C0C09309263F
:101E70008091082684FFD5CF0E94000E811579F24B
:101E800080EF809373001092BC0780E00E94DE0C0C
:101E9000CF910C94A00787FF11C080910A269091E2
:101EA0000B26009729F3019790930B2680930A261F
:101EB000809109268115E1F28150D5CF86FFD8CFD8
:101EC0000E94380D8091C1089091C208892B81F63B
:101ED00080EF809373001092BC0780E0CF910C9448
:101EE000DE0C1092072681E493E00E94DF070E9437
:101EF000C11F81110C940B0F42E653E061E080E0BA
:101F00000E94C50A2FEF8FE594E521508040904054
:101F1000E1F700C0000008954F925F926F927F92A8
:101F20008F929F92AF92BF92CF92DF92EF92FF92E9
:101F30000F931F93CF938091BE079091BF07A091FD
:101F4000C007B091C10700E010E0892B8A2B8B2BD2
:101F500091F41092BD07CF911F910F91FF90EF90D8
:101F6000DF90CF90BF90AF909F908F907F906F90B9
:101F70005F904F9008950E94A0090F5F1F4F0D3191
:101F80001105C9F700E010E0812C912C5401892C37
:101F90009A2CAB2CBB240E94A009B82A0F5F1F4FBC
:101FA00004301105A1F700E010E00E94A0090F5FC6
:101FB0001F4F03311105C9F781149104A104B10425
:101FC00041F2549A5C9880916E00826080936E001A
:101FD000412C512C3201C0E10E94A0098115F9F079
:101FE0008093AA038091AA038111FCCF82B18C2730
:101FF00082B98091BC0781110AC08FEF481A580A34
:10200000680A780A481459046A047B0429F7809105
:102010006E008D7F80936E0054985C9A9ACF00E09A
:1020200010E0C12CD12CE12CF12CCD2CDE2CEF2C8E
:10203000FF240E94A009F82A0F5F1F4F04301105EA
:10204000A1F780E090E0DC018C159D05AE05BF0591
:1020500069F225E52A95F1F72091BC072111C6CF39
:102060000196A11DB11DF0CF0F931F93CF93DF9366
:10207000D82FC92F62E773E00E94C4260091C508DB
:102080001091C6080F5F1F4F44E0B8018D2F9C2FA1
:102090000E9419038D2F9C2F0E941F18853091F3E9
:1020A0008091C5089091C60801969093C6088093C8
:1020B000C508DF91CF911F910F91089590B180B124
:1020C000892782FD04C08091BC078115C1F3F89473
:1020D0006091AB037091AC038091AD039091AE031E
:1020E0001092AB031092AC031092AD031092AE03AA
:1020F000789432B120E1232722B90895AF92BF929C
:10210000CF92DF92EF92FF920F931F93CF93DF93C3
:10211000CDB7DEB7A7970FB6F894DEBF0FBECDBF21
:102120006B017C0187E1EFE7F3E0DE01119601909E
:102130000D928A95E1F780E1E6E9F3E0DE01589639
:1021400001900D928A95E1F70E9494098E010F5F2C
:102150001F4F5E0187E1A80EB11CF80181918F012C
:102160000E94A809A016B106C1F78AE10E94A80939
:1021700082E00E94A80980E00E94A80980EA0E94EB
:10218000A8098CE80E94A80980E00E94A80980E0C4
:102190000E94A8098C2D0E94A8098D2D0E94A809D3
:1021A0008E2D0E94A8098F2D0E94A80981E00E940F
:1021B000A80980E00E94A80980E00E94A8098E0179
:1021C000085E1F4F7E01F8E2EF0EF11CF8018191CD
:1021D0008F010E94A809E016F106C1F7A7960FB675
:1021E000F894DEBF0FBECDBFDF91CF911F910F914D
:1021F000FF90EF90DF90CF90BF90AF9008958F92B7
:102200009F92AF92BF92CF92DF92EF92FF92CF93C5
:102210000E94970284E390E0A0E0B0E08093BE07C4
:102220009093BF07A093C007B093C1070E94940981
:10223000C4E30E94A009CA95E1F78EE091E00E94F4
:1022400034108EE091E00E94F107569A5E98F8945F
:102250001092AB031092AC031092AD031092AE0338
:10226000789480916E00826080936E00812C912C16
:1022700054010E945E106B017C018FEF881A980A4E
:10228000A80AB80AC11481E0D806E104F104A8F54F
:102290008C2D0E94A8098091BE079091BF07A09144
:1022A000C007B091C1070196A11DB11D8093BE0763
:1022B0009093BF07A093C007B093C1078091BC075C
:1022C0008115B9F256985E9A80916E008D7F809349
:1022D0006E00C501B4010E947E108EE091E00E9464
:1022E000E8031092BD07CF91FF90EF90DF90CF9061
:1022F000BF90AF909F908F90089580E00E94A809B2
:10230000C4E08C2D0E94A809CD2CDE2CEF2CFF24DC
:10231000CA95B9F78091BE079091BF07A091C007F9
:10232000B091C1070596A11DB11DC0CF0F931F939A
:10233000CF93DF93EB01182F092F4EE558E20E944F
:102340003B2120E030E0F901E25AF74D8081811114
:1023500015C0C0932626D0932726109328260093D5
:10236000292685E0369527958A95E1F7209325263D
:1023700081E0DF91CF911F910F910895853E49F340
:10238000205E3F4F211582E03807E9F680E0F1CF6B
:10239000CF92DF92EF92FF92CF93EEE5F8E220E04A
:1023A00032E0DF01A9011D9241505040E1F7C09198
:1023B0003E266B017C01C60FB601C7015FEFC51A4F
:1023C000D50AE50AF50A4EE558E20E948C21CC11A7
:1023D000F3CFCF91FF90EF90DF90CF900895FC0165
:1023E00080911C26811511F080E0089580818F3244
:1023F00019F5809151288C3051F410920C261092CE
:102400000D2610920E2610920F2681E0089580313D
:10241000A1F38032D1F780914D2890914E28A09160
:102420004F28B091502880930C2690930D26A093AE
:102430000E26B0930F26E9CFCF010E941F188530DA
:1024400099F680911B26803179F6809137269091FC
:102450003826A0913926B0913A26E5CFCF93DF9365
:102460006091262670912726809128269091292612
:102470004EE558E20E943B21C091252680E2C89F8C
:10248000E0011124C25AD74D4BE050E060E176E202
:10249000CE010E94FB2680911B268B871C861D8601
:1024A00080E792E89F878E879F8B8E8B82E097E3F1
:1024B000998B888B998F888F9B8B8A8B80913726FD
:1024C00090913826A0913926B0913A26BD8BAC8BDD
:1024D0009B8F8A8F8091212690912226A09123267E
:1024E000B09124268C8F9D8FAE8FBF8F6091262652
:1024F0007091272680912826909129264EE558E252
:102500000E948C2181E0DF91CF9108954F925F92DC
:102510006F927F928F929F92AF92BF92CF92DF92F3
:10252000EF92FF92CF93DF9300D000D00F92CDB700
:10253000DEB780900C2690900D26A0900E26B090CD
:102540000F2622E082169104A104B10408F062C0B3
:102550008091562890913B26C82ED0905728E09025
:102560005828F0905928980F9D83B601C701AFEF06
:10257000CA1ADA0AEA0AFA0A0E949611811197C069
:10258000BD81BC11F2CFC0900C26D0900D26E090FA
:102590000E26F0900F2622E0C216D104E104F104C9
:1025A00008F049C0809151288C3009F041C080E08A
:1025B0000F900F900F900F900F90DF91CF91FF90A1
:1025C000EF90DF90CF90BF90AF909F908F907F90D3
:1025D0006F905F904F900895C501B4010E941F1C39
:1025E000A0913E266B017C01A60FAD83B601C70109
:1025F000BFEFCB1ADB0AEB0AFB0A0E94961181118E
:1026000056C02D812C11F2CFC501B4010E94551B7B
:102610004B015C018091492890914A28A0914B2858
:10262000B0914C2888169906AA06BB06A8F2ABCF33
:10263000803109F4BCCF9C2CAD2CBE2CFD82C7018F
:10264000B6010E94551B6B017C0180914928909135
:102650004A28A0914B28B0914C28C816D906EA0602
:10266000FB0648F3692D7A2D8B2D9D810E94AF1DAD
:1026700069837A838B839C8389819A81AB81BC81B6
:102680008F3F2FEF9207A207B20709F490CFBC014A
:10269000CD010E941F1C60932626709327268093ED
:1026A0002826909329260E94C8111092252660E0C2
:1026B00070E0CB010E94AF1D2B013C018FEF48164B
:1026C00058066806780609F472CF40923726509271
:1026D00038266092392670923A261092212610925E
:1026E000222610922326109224260E942E1281E088
:1026F0005FCFEF92FF920F931F93CF93DF938C01E5
:102700004BE050E060E270E080E196E20E94B42687
:10271000F80180818E3271F48093102681818E328F
:1027200011F480931126DF91CF911F910F91FF90AB
:10273000EF900895C0E1D6E2F12CE0E0EE24E394BE
:10274000EE0EE00FF12FF11D8081811561F38E32C5
:1027500051F090E00E94AC268993F394FBE0FF16C1
:1027600011F3EE2DEBCFC8E1D6E2FBCFCF93DF9391
:10277000D82FC92F80911C2681110BC08D2F0E944C
:102780001F18853041F4C1E080911B26803109F487
:1027900054C0C0E052C080E180931B268D2F9C2F37
:1027A0000E9479130E948612C82F811509F449C02E
:1027B00060913726709138268091392690913A267B
:1027C0000E941F1C6093262670932726809328263C
:1027D000909329260E94C8111092252687EA93E03B
:1027E0000E9479130E942E1281E08093252686EAAA
:1027F00093E00E94791380910C2690910D26A09170
:102800000E26B0910F268093372690933826A093FA
:102810003926B0933A260E942E126091402870917A
:10282000412880914228909143284FE356E20E942C
:102830008C2110923F2810921B268C2FDF91CF9174
:10284000089510921B26A5CF2F923F924F925F9230
:102850007F928F929F92AF92BF92CF92DF92EF9230
:10286000FF920F931F93CF93DF93E62EB72EA82EE0
:10287000792E8A014115510519F0CA010E94791378
:102880004EE558E26E2D7B2D8A2D972D0E943B211F
:10289000CEE5D8E2C12CD12C4E018881811509F4F6
:1028A000F6C0853E09F4E9C0FB848F2D8F738B87BA
:1028B0008F3009F4E2C00115110551F04BE050E0F2
:1028C000BE0180E196E20E94ED2625E0892B09F009
:1028D00021E08F2D8870F3FCD0C00115110509F09F
:1028E0006FC04091702A5091712A6091722A709144
:1028F000732A4F5F5F4F6F4F7F4F4093702A509303
:10290000712A6093722A7093732A2090742A3090EF
:10291000752A4090762A5090772A24163506460666
:10292000570608F0AAC04093742A5093752A609302
:10293000762A7093772AE3E6FAE29991903221F0B1
:1029400091938F5F8830C9F7F40190859032B9F088
:10295000E1E0E80FA82FB0E0A25AB54D9EE215962F
:102960009C93D40118968C5F2D91203241F091E018
:102970009E0FF0E0E25AF54D258398130FC0F4FE48
:102980000FC080E180935E2A10925F2A1092602A25
:102990001092612A1092622A85E079C0E92FE4CF73
:1029A00010925E2AF401848D958DA68DB78D80934B
:1029B0005F2A9093602AA093612AB093622AECCF99
:1029C0004C895D8960E070E0BA01552744278A8D03
:1029D0009B8D480F591F611D711D409337265093E1
:1029E00038266093392670933A26E0922626B092D4
:1029F0002726A092282670922926C60135E09695B2
:102A000087953A95E1F7809325262530B1F5F4FEB8
:102A100025C0809151288032A9F4423051056105CA
:102A2000710580F480914D2890914E28A0914F28F7
:102A3000B09150288093372690933826A09339265A
:102A4000B0933A2610922126109222261092232625
:102A50001092242680E180931B269ECF8C8D9D8D25
:102A6000AE8DBF8D8093212690932226A09323269E
:102A7000B093242610921B268FCFF0E2CF0ED11CEC
:102A8000A096C11482E0D80609F006CF81E0DF915C
:102A9000CF911F910F91FF90EF90DF90CF90BF905B
:102AA000AF909F908F907F905F904F903F902F902E
:102AB00008958F929F92AF92BF92CF92DF92EF9242
:102AC000FF921F93CF93DF93EC0180900C269090A0
:102AD0000D26A0900E26B0900F2622E082169104BB
:102AE000A104B10408F044C08091562810913B26FF
:102AF000C82ED0905728E0905828F0905928180FE9
:102B0000B601C701AE012FEFC21AD20AE20AF20AD9
:102B10000E942414813019F41C11F2CF81E0DF915E
:102B2000CF911F91FF90EF90DF90CF90BF90AF902B
:102B30009F908F900895C501B4010E941F1C1091B1
:102B40003E266B017C01160FB601C701AE012FEFC7
:102B5000C21AD20AE20AF20A0E9424148130F9F65B
:102B60001C11F2CFC501B4010E94551B4B015C0141
:102B70008091492890914A28A0914B28B0914C28E7
:102B800088169906AA06BB06B0F2C8CF3F924F92AC
:102B90005F926F927F928F929F92AF92BF92CF92ED
:102BA000DF92EF92FF920F931F93CF93DF9300D0AA
:102BB00000D0CDB7DEB77C016B837C8380911C266F
:102BC000C12CD12C873721F42B813C81232BB9F4E4
:102BD000C6010F900F900F900F90DF91CF911F9132
:102BE0000F91FF90EF90DF90CF90BF90AF909F90AC
:102BF0008F907F906F905F904F903F90089580905E
:102C0000212690902226A0902326B0902426809101
:102C10002A2690912B26A0912C26B0912D26881A39
:102C2000990AAA0ABB0A80913C2690913D268816F3
:102C30009906A104B10408F457C02091322660918E
:102C40002E2670912F268091302690913126620F8A
:102C5000711D811D911D4EE558E20E948C216091ED
:102C600033267091342680913526909136260E9425
:102C7000AF1D2B013C0140923326509234266092C6
:102C80003526709236262FEF4216520662067206DD
:102C900009F49ECFC301B2010E941F1C60932E262F
:102CA00070932F26809330269093312610923226EF
:102CB00080913C2690913D2640912A2650912B26CA
:102CC00060912C2670912D26480F591F611D711D92
:102CD00040932A2650932B2660932C2670932D2602
:102CE000881A990AA108B108392C36948401117008
:102CF00020913226231591F060912E2670912F2677
:102D00008091302690913126620F711D811D911D99
:102D10004EE558E20E948C21309232268B819C81B4
:102D2000800F911F8130924008F441C0AB80BC807D
:102D300042E0B41AC8018A0D9B1D9A83898320E062
:102D400032E0201B310B3C832B8380912126909114
:102D50002226A0912326B09124264B815C81840FEA
:102D6000951FA11DB11D8093212690932226A0932B
:102D70002326B0932426C40ED51EF801E25AF74D3F
:102D80004E0D5F1D5C834B83C7013B812C81DC01B1
:102D900001964C9141934B815C8184179507B9F75B
:102DA000E32EF22E89819A819C838B830DCF198229
:102DB0001A82CBCF4F925F926F927F928F929F92A7
:102DC000AF92BF92CF92DF92EF92FF920F931F9339
:102DD000CF93DF937C01EB0180911C2600E010E093
:102DE000823709F0D4C08091212690912226A091AB
:102DF0002326B091242640911D2650911E266091D5
:102E00001F2670912026841B950BA60BB70B8C17E1
:102E10009D07A105B10508F4EC0100E010E0A12C2C
:102E200082E0B82EB1C040901D2650901E266090C2
:102E30001F267090202680912A2690912B26A09103
:102E40002C26B0912D26481A590A6A0A7B0A8091CD
:102E50003C2690913D264816590661047104F0F114
:102E600060913326709134268091352690913626D4
:102E70000E94551B60933326709334268093352629
:102E8000909336260E941F1C60932E2670932F2647
:102E900080933026909331264EE558E20E943B21E4
:102EA0001092322680913C2690913D2640912A2610
:102EB00050912B2660912C2670912D26480F591F7A
:102EC000611D711D40932A2650932B2660932C265A
:102ED00070932D26481A590A61087108C201892F7A
:102EE0009927869521E05222209132262817B1F0A9
:102EF0008093322640912E2650912F2660913026C5
:102F0000709131263A014B01680E791E811C911C8B
:102F1000C401B3014EE558E20E943B21CE01840D6D
:102F2000951DC12CD12C8130924038F0D2506E01C9
:102F3000C40CD51CE501C419D5090C0F1D1F8091C7
:102F40001D2690911E26A0911F26B09120268C0F41
:102F50009D1FA11DB11D80931D2690931E26A09339
:102F60001F26B0932026C201825A974D9C012C0F38
:102F70003D1FF701DC0101964C91419382179307A5
:102F8000C9F7EC0EFD1EE601209709F04CCFC801F1
:102F9000DF91CF911F910F91FF90EF90DF90CF9035
:102FA000BF90AF909F908F907F906F905F904F9069
:102FB000089580911C268115C1F180913F288115CB
:102FC00071F0609140287091412880914228909141
:102FD00043284FE356E20E948C2110923F28209113
:102FE000322660912E2670912F2680913026909166
:102FF0003126620F711D811D911D4EE558E20E9420
:103000008C210E942E122091322660912E267091E2
:103010002F268091302690913126620F711D811DDF
:10302000911D4EE558E20C943B21089580911C2699
:10303000873711F40E94D91710921C260895209109
:103040001C26211102C00C94591581E00895CF92DD
:10305000DF92EF92FF920F931F93CF93DF93209114
:103060001C26211551F080E0DF91CF911F910F9127
:10307000FF90EF90DF90CF9008952FEF20931B26C5
:103080000E941F18853011F081E0EECF80911B2641
:103090008F7E8111E8CFC0903726D0903826E090FF
:1030A0003926F0903A2682E0C816D104E104F104F2
:1030B000F0F08601DE2DCF2DC701B6010E94551B11
:1030C0006B017C0120E030E0A901B8018D2F9C2F1D
:1030D0000E94AE1C8091492890914A28A0914B28CB
:1030E000B0914C28C816D906EA06FB0610F3809169
:1030F0003F28811571F0609140287091412880919E
:103100004228909143284FE356E20E948C2110926E
:103110003F2885EE809310261092212610922226B9
:1031200010922326109224261092372610923826C9
:103130001092392610923A2610921B260E942E12C7
:10314000A3CF8F929F92AF92BF92CF92DF92EF92D6
:10315000FF92CF937C01C62F80911C26811123C042
:1031600010922A2610922B2610922C2610922D2691
:10317000623709F053C0C7010E941F18853099F4C7
:1031800080911B2681110FC06091372670913826DF
:103190008091392690913A2662307105810591051A
:1031A00068F410921C2680E0CF91FF90EF90DF90A2
:1031B000CF90BF90AF909F908F900895C0902126A0
:1031C000D0902226E0902326F0902426CD28CE28E9
:1031D000CF2839F310921D2610921E2610921F261A
:1031E00010922026609333267093342680933526E0
:1031F00090933626C0931C260E941F1C60932E2697
:1032000070932F2680933026909331261092322689
:103210004EE558E20E943B2181E0C6CF673719F6A0
:10322000C7010E941F18853009F09DC080911B26A0
:103230008111B9CFC0903726D0903826E09039263A
:10324000F0903A2682E0C816D104E104F10408F4B3
:10325000A8CFC0923326D0923426E0923526F09241
:1032600036268091492890914A28A0914B28B09108
:103270004C28C816D906EA06FB0608F43FC0C090E1
:103280002126D0902226E0902326F09024264091FB
:103290002A2650912B2660912C2670912D26C41A37
:1032A000D50AE60AF70A6091332670913426809198
:1032B0003526909136260E941F1C4B015C0180929E
:1032C0002E2690922F26A0923026B092312689E0A9
:1032D000F694E794D794C7948A95D1F7C092322692
:1032E000C501B4016C0D711D811D911D4EE558E2A3
:1032F0000E943B2187E780931C268ECFC701B60131
:103300000E94551B6B017C018091492890914A28AD
:10331000A0914B28B0914C28C816D906EA06FB06A6
:1033200008F09FCFC0923326D0923426E092352603
:10333000F092362620913C2630913D2680912A2617
:1033400090912B26A0912C26B0912D26820F931FB1
:10335000A11DB11D80932A2690932B26A0932C2685
:10336000B0932D267ECF10921B26C7010E947913A1
:103370000E948612811509F414CF6091372670914E
:1033800038268091392690913A266093332670939F
:10339000342680933526909336260E941F1C609316
:1033A0002E2670932F2680933026909331261092EC
:1033B00032269CCF4F925F926F927F928F929F9214
:1033C000AF92BF92CF92DF92EF92FF920F931F9333
:1033D0008B019C0180911C26811509F4F7C0873769
:1033E00009F4F6C0413009F49CC04230B9F089E0DC
:1033F000411188C083E037FD85C0D901C8014091E3
:103400002126509122266091232670912426481768
:1034100059076A077B07A8F484E074C085E010169A
:103420001106120613060CF46DC0809121269091AE
:103430002226A0912326B0912426800F911FA21F3F
:10344000B31F80931D2690931E26A0931F26B09332
:103450002026BC01CD0129E0969587957795679543
:103460002A95D1F780903E262FEF280D2623209312
:103470003226282D30E040E050E00E9451262901FC
:103480003A018090372690903826A0903926B09047
:103490003A268092332690923426A0923526B09216
:1034A000362610922A2610922B2610922C26109245
:1034B0002D26411451046104710409F04EC060913D
:1034C00033267091342680913526909136260E94BD
:1034D0001F1C6B017C01C0922E26D0922F26E092F9
:1034E0003026F092312680913226A7019601280FCE
:1034F000311D411D511DCA01B9014EE558E20E941E
:103500003B2180E01F910F91FF90EF90DF90CF90D3
:10351000BF90AF909F908F907F906F905F904F90F3
:10352000089580911D2690911E26A0911F26B0918E
:103530002026800F911FA21FB31F4091212650917A
:1035400022266091232670912426481759076A077E
:103550007B0708F076CF88E0D5CFC501B4010E9483
:10356000551B4B015C018091492890914A28A091FC
:103570004B28B0914C2888169906AA06BB0600F580
:103580008092332690923426A0923526B092362629
:1035900020913C2630913D2680912A2690912B2621
:1035A000A0912C26B0912D26820F931FA11DB11D35
:1035B00080932A2690932B26A0932C26B0932D2619
:1035C00021E0421A51086108710873CF81E09ACF57
:1035D00082E098CFCF92DF92EF92FF921F93CF932A
:1035E000DF93EC01E12CF12C6E0110E1F6018191E9
:1035F0006F010E941B261A95C9F780E20E94D1250F
:1036000080E20E94D1256E0110E1F60181916F01E7
:10361000803208F48EE20E94D1251A95B1F78DE030
:103620000E94D1258AE00E94D125F0E1EF0EF11C25
:103630006096E11482E0F806B9F6DF91CF911F9110
:10364000FF90EF90DF90CF900895CF92DF92EF92AE
:10365000FF926B017C01609140287091412880911C
:103660004228909143286C157D058E059F05C1F079
:1036700020913F28211531F04FE356E20E948C2122
:1036800010923F284FE356E2C701B6010E943B214A
:10369000C0924028D0924128E0924228F0924328DC
:1036A000FF90EF90DF90CF9008958F929F92AF920E
:1036B000BF92CF92DF92EF92FF920F931F93CF931F
:1036C000DF936B017C018091452890914628A09161
:1036D0004728B0914828C816D906EA06FB0608F024
:1036E000AAC0809151288C3009F061C0CB01880FAD
:1036F000991F860F971FEC01D695C795D170892F1A
:103700009927869586954C01A12CB12C4091522881
:103710005091532860915428709155288A019B013B
:10372000080F191F211D311DC901B8010E94251B59
:10373000CF3F11E0D107A1F5C0913E28D0E08091A4
:10374000522890915328A0915428B0915528BC013B
:10375000CD016F5F7F4F8F4F9F4F680D791D8A1D81
:103760009B1D0E94251B60913F2670E0762F6627E7
:103770006C0F7D1FC0FE19C0E4E076956795EA9551
:10378000E1F780E090E0DF91CF911F910F91FF90E2
:10379000EF90DF90CF90BF90AF909F908F90089563
:1037A000C15CD94D68817981E5CF7F70EACF8031E6
:1037B000C9F4272F332760915228709153288091A4
:1037C000542890915528620F731F811D911D0E94EE
:1037D000251BCC0CDD1CF601F170E15CF94D60811C
:1037E0007181CFCF803239F5C701B60127E09695B8
:1037F0008795779567952A95D1F780905228909074
:103800005328A0905428B0905528680D791D8A1D22
:103810009B1D0E94251BCC0CDD1CCC0CDD1CF60175
:10382000F170E15CF94D80819181A281B381BC018D
:10383000CD019F70A8CF6FEF7FEFCB01A4CF0F9387
:103840001F93DC01CB010297A109B10920913E260B
:103850002695211111C000915A2810915B282091C2
:103860005C2830915D28BC01CD01600F711F821F63
:10387000931F1F910F910895880F991FAA1FBB1FB7
:10388000E7CF8F929F92AF92BF92CF92DF92EF924B
:10389000FF924B015C01750164018FEFC81AD80AD1
:1038A000E80AF80A8091452890914628A091472877
:1038B000B0914828C816D906EA06FB06A8F4C70145
:1038C000B6010E94551B672B682B692B31F780913D
:1038D000452890914628A0914728B0914828C816BD
:1038E000D906EA06FB0678F192E0C92ED12CE12C2C
:1038F000F12C05C08FEFC81AD80AE80AF80A8C1410
:103900009D04AE04BF0468F0C701B6010E94551BB8
:10391000672B682B692B71F7C814D904EA04FB04E0
:1039200028F0CC24CA94DC2C76010DC08091452867
:1039300090914628A0914728B0914828C816D906EA
:10394000EA06FB0670F7C701B601FF90EF90DF9023
:10395000CF90BF90AF909F908F9008952F923F92FD
:103960004F925F926F927F928F929F92AF92BF928F
:10397000CF92DF92EF92FF920F931F93CF93DF933B
:1039800000D000D0CDB7DEB76B017C0129013A0130
:103990008091452890914628A0914728B0914828C9
:1039A000C816D906EA06FB0608F09FC08091512888
:1039B0008C3009F04FC0CB01880F991F8C0D9D1DD5
:1039C0009C013695279531703C832B83892F99274D
:1039D000869586958090522890905328A0905428E0
:1039E000B0905528880E991EA11CB11C82013C2D57
:1039F0003170332EC0FE05C064E0000F111F6A95C0
:103A0000E1F7202E1A831983C501B4010E94251BFA
:103A10008B819C818F3F914009F087C0311421F048
:103A200080913E288F70282A20923E2881E0809342
:103A30003F28C501B4016F5F7F4F8F4F9F4F0E949A
:103A4000251B311409F469C0F981F0933F2681E008
:103A500080933F28809151288031D9F42D2D332730
:103A60006091522870915328809154289091552844
:103A7000620F731F811D911D0E94251BF601EE0F21
:103A8000FF1FF170E15CF94D4082518281E080932B
:103A90003F2880915128803241F5C701B60127E0C7
:103AA00096958795779567952A95D1F70091522835
:103AB000109153282091542830915528600F711F80
:103AC000821F931F0E94251BF601EE0FFF1FEE0FB2
:103AD000FF1FF170E15CF94D2FE0722240825182AC
:103AE0006282738281E080933F2880E00F900F9084
:103AF0000F900F90DF91CF911F910F91FF90EF905A
:103B0000DF90CF90BF90AF909F908F907F906F90FD
:103B10005F904F903F902F90089580913F26807F37
:103B20002981822B80933F2692CF8B819C81815C5F
:103B3000994D9C838B83311439F0FC0180818F7007
:103B4000802B8083118383CFEB81FC810083818173
:103B5000807FFA818F2BEB81FC81818378CF8F92DC
:103B60009F92AF92BF92CF92DF92EF92FF924B0162
:103B70005C01C501B4010E94411C6B017C018FEF07
:103B8000C816D806E806F806E1F18091452890911C
:103B90004628A0914728B09148288C159D05AE0570
:103BA000BF0578F181149104A104B10431F0A7019B
:103BB0009601C501B4010E94AE1C809151288C3041
:103BC00041F42FEF3FE040E050E0C701B6010E9412
:103BD000AE1C80915128803141F42FEF3FEF40E03F
:103BE00050E0C701B6010E94AE1C8091512880327E
:103BF00041F42FEF3FEF4FEF5FE0C701B6010E94A6
:103C0000AE1CC701B601FF90EF90DF90CF90BF9040
:103C1000AF909F908F9008954F925F926F927F9296
:103C20008F929F92AF92BF92CF92DF92EF92FF92CC
:103C30000F931F93CF93DF9300D000D000D0CDB768
:103C4000DEB70E94FD2189838115C1F080E00F90CD
:103C50000F900F900F900F900F90DF91CF911F91C9
:103C60000F91FF90EF90DF90CF90BF90AF909F901B
:103C70008F907F906F905F904F9008951092512891
:103C80004EE558E260E070E0CB010E943B21812CC0
:103C9000912C540180919428863409F0FAC08091C7
:103CA0009728813309F0F5C080919828823309F074
:103CB000EBC08CE080935128009151288981802BA2
:103CC00021E02983811531F3011509F4BFCF10914B
:103CD0006B2810933E26E0916F28F091702845E004
:103CE000EE0FFF1F4A95E1F7E150FE4FEF2FFF2740
:103CF000E695E0933B26209174283091752840E0AA
:103D000050E02115310541F420918228309183281B
:103D10004091842850918528C0907128D0907228B5
:103D2000E12CF12CC114D10441F4C0907E28D09034
:103D30007F28E0908028F090812880916C289091D5
:103D40006D289E838D83880E991EA11CB11C8092C4
:103D5000522890925328A0925428B0925528A091AE
:103D60006E28B0E00E94A126A5019401260F371FFE
:103D7000481F591F29833A834B835C83209356281D
:103D80003093572840935828509359282F01612C7D
:103D9000712CA3019201ED81FE812E0F3F1F411D69
:103DA000511DDC01CB01820F931FA41FB51FA7017A
:103DB0009601281B390B4A0B5B0BDA01C9014981BB
:103DC0005A816B817C81440D551D661D771D409382
:103DD0005A2850935B2860935C2870935D28212FAC
:103DE0002695211173C00296A11DB11D809345280F
:103DF00090934628A0934728B093482810920C2609
:103E000010920D2610920E2610920F2688EF9FE03A
:103E1000A0E0B0E00C3039F0003109F05CC088EF70
:103E20009FEFA0E0B0E08093492890934A28A093A8
:103E30004B28B0934C2810923726109238261092B7
:103E4000392610923A26109221261092222610929C
:103E500023261092242610921C26110F10923C2625
:103E600010933D268092402890924128A0924228AB
:103E7000B092432810923F284FE356E2C501B401A7
:103E80000E943B2181E0E3CE863309F015CF80E12B
:103E900011CF8091B028863451F48091B3288333B8
:103EA00031F48091B428823311F480E203CF809002
:103EB000242A9090252AA090262AB090272A4EE501
:103EC00058E2C501B4010E943B21F6CEB695A795F4
:103ED0009795879585CF003209F0ADCF88EF9FEF9A
:103EE000AFEFBFE08093492890934A28A0934B28D6
:103EF000B0934C2860918A2870918B2880918C28EF
:103F000090918D2860934D2870934E2880934F2870
:103F10009093502860930C2670930D2680930E2664
:103F200090930F260E941F1C609356287093572869
:103F300080935828909359287ECFE3E6FAE28DE0EB
:103F4000DF011D928A95E9F78FEF80935E2A109228
:103F50005F2A1092602A1092612A1092622A1092AF
:103F6000702A1092712A1092722A1092732A80E09D
:103F700090E00E945915982F81E0953009F080E07B
:103F800008951092742A1092752A1092762A10922F
:103F9000772A0C949D1F8F3DB1F068F4803BA9F007
:103FA00030F48A3011F08D30A9F480E00895853B1B
:103FB00089F484EE0895863F51F08C3F51F0843EA1
:103FC00049F481EE089582EE08958FED08958FEE05
:103FD000089585EF08959C012115310509F4089590
:103FE00000000000000000000000000000000000D1
:103FF0000000000000000000000000002150310916
:10400000EBCF5C9A81E090E00E94EB1F5C9881E02E
:1040100090E00C94EB1F88B90E94012082E390E0AD
:104020000C94EB1F5D980E940B205D9A0895CF932E
:10403000DF93EC018991811103C0DF91CF91089545
:104040000E94CB1F81110E940B20CE01F2CFCF9393
:10405000DF93EC01FE018491811103C0DF91CF91C8
:1040600008950E94CB1F81110E940B202196F2CF50
:104070000F931F93CF93DF93EB018830C0F4880F29
:10408000880F880F805C0E9412208E01085F1F4FEE
:10409000FE01219680810E940B20C017D107C1F735
:1040A00080E8DF91CF911F910F910C941220DF9146
:1040B000CF911F910F910895CF93C82F82958F7044
:1040C000C03A58F4805D0E940B208C2F8F708A308C
:1040D00030F4805DCF910C940B20895CF4CF895C27
:1040E000F9CFCF93C82F892F0E945C208C2FCF91BE
:1040F0000C945C201F93CF93DF93EB01182F892F33
:104100000E945C20812F0E945C208D2F0E945C20E9
:104110008C2FDF91CF911F910C945C209FEF980F13
:10412000923080F49FEF960F983260F4823041F025
:104130006158862F0E94122082E390E00C94EB1FBE
:104140006154F7CF0895CF93DF93EC01209719F4D2
:10415000DF91CF91089588EE93E00E94EB1F2197A5
:10416000F5CF81E00E94122085E090E00C94A3201E
:1041700080E30E940B2084E690E00E94A32080E36D
:104180000E940B2084E690E00E94A32080E30E941E
:104190000B2084E690E00E94A32088E30E940B207D
:1041A00085E090E00C94A320559A549A5D985C9811
:1041B0008FEF87B918B88FEF90E00E94A3200E947C
:1041C000B82088E00E9412200E94B12086E00E9460
:1041D00012208CE00E94122084E10C94122027E926
:1041E0003AE280E090E0F90140812F5F3F4F4A3A88
:1041F00029F40196211541E43407A8F308950F939B
:104200001F938A019B019FEF9EBD0DB407FEFDCF5A
:104210002C988EBD0DB407FEFDCF832F9927AA27BA
:10422000BB278EBD0DB407FEFDCFC901AA27BB2752
:104230008EBD0DB407FEFDCFBB27A32F922F812F7C
:104240008EBD0DB407FEFDCF0EBD0DB407FEFDCF34
:1042500085E98EBD0DB407FEFDCF9FEF2FEF2EBD7C
:104260000DB407FEFDCF8EB59A9511F08F3FB9F3CF
:104270001F910F910895EF92FF920F931F93CF9389
:10428000DF938B019C01EA01ECB4FDB480E58CBDA9
:1042900081E08DBD80917C2A811107C089E0000FEB
:1042A000111F221F331F8A95D1F7B901A80181E59B
:1042B0000E94FF209FEF8E3F49F58FEF8EBD0DB41A
:1042C00007FEFDCF8EB59FEF9EBD9E0121503E4F54
:1042D000888321960DB407FEFDCF8EB59EBDC21713
:1042E000D307B1F788830DB407FEFDCF8FEF8EBDE6
:1042F0000DB407FEFDCF2C9AECBCFDBC80E0DF9135
:10430000CF911F910F91FF90EF9008959EBD0DB436
:1043100007FEFDCF8EB5CFCFEF92FF920F931F9385
:10432000CF93DF938B019C01EA01ECB4FDB480E5EF
:104330008CBD81E08DBD80917C2A811107C089E010
:10434000000F111F221F331F8A95D1F7B901A80151
:1043500088E50E94FF208EEF8EBDCE019E5F2881F2
:1043600021960DB407FEFDCF2EBDC817D907B9F7AA
:104370000DB407FEFDCF8FEF8EBD0DB407FEFDCF50
:104380008FEF8EBD0DB407FEFDCF8FEF8EBD0DB448
:1043900007FEFDCF8EB58F719FEF853059F02C9AB7
:1043A000ECBCFDBC81E0DF91CF911F910F91FF909C
:1043B000EF9008959EBD0DB407FEFDCF8EB581151B
:1043C000C9F32C9AECBCFDBC80E0EDCF2C9A249A6A
:1043D0002F98279A26982D98259A08959C019FEF4B
:1043E000620F9EBD0DB407FEFDCFF9018EB581931E
:1043F0006E1301C008959F01F4CFAF92BF92CF9288
:10440000DF92EF92FF920F931F93CF93DF93CDB77D
:10441000DEB760970FB6F894DEBF0FBECDBF83E561
:104420008CBD1DBC8AE090E02FEF2EBD0DB407FEC1
:10443000FDCF0197D1F7E4E6EE2EF12C40E050E0FD
:10444000BA0180E40E94FF20182F8130B9F041E0CA
:10445000E41AF10899F72C9A81E060960FB6F89467
:10446000DEBF0FBECDBFDF91CF911F910F91FF90A7
:10447000EF90DF90CF90BF90AF90089510927C2A7C
:1044800042E251E060E070E088E40E94FF2082FD9B
:10449000CCC01982188619861A8664E08E010F5FD7
:1044A0001F4FC8010E94EE218B817801813019F0E5
:1044B0002C9A86E0D2CF8C81823219F02C9A85E03A
:1044C000CCCF40E050E0BA018AE70E94FF2064E0D0
:1044D000C8010E94EE2102E014E040E050E0BA0181
:1044E00087E70E94FF2040E050E060E070E489E64A
:1044F0000E94FF20811531F00150104071F72C9A75
:1045000083E0ABCF40E050E0BA018AE70E94FF2091
:1045100064E0C7010E94EE21D980A884B984CA84CE
:10452000D6FEB4C081E080937C2A13E040E050E0E6
:10453000BA0189E40E94FF209FEF8E3F09F0A8C0D6
:10454000D982A886B986CA8660E1CE0101960E940A
:10455000EE218981388529850A859FEF9EBD0DB49E
:1045600007FEFDCF9FEF9EBD0DB407FEFDCF2C9A39
:10457000113059F082958695869583709EEF980F3D
:10458000923008F4B0C0811189C08F81837090E0AF
:10459000A0E0B0E044E0349F600111246AE0880F9D
:1045A000991FAA1FBB1F6A95D1F78C0D9D1DA11DD8
:1045B000B11D22952695269523702F5F820F911DA0
:1045C000A11DB11D2E812F70E1E0F0E0AF0102C00E
:1045D000440F551F2A95E2F79A01532F56959C01D7
:1045E000A52FB0E00E9492269B01AC018B8587FB32
:1045F000882780F98E5F902F990F9670890FDF01C1
:1046000002C0AA0FBB1F8A95E2F70E94A126609301
:10461000782A7093792A80937A2A90937B2A80E56E
:104620008CBD81E08DBD80E018CF40E050E0BA0144
:1046300087E70E94FF2082FD15C002E014E040E001
:1046400050E0BA0189E60E94FF208115F9F001507F
:10465000104009F454CF40E050E0BA0187E70E94CF
:10466000FF20EDCF72E0E72E74E0F72E40E050E03F
:10467000BA0181E40E94FF20811509F457CF51E06F
:10468000E51AF10899F72C9A82E0E7CE12E04ECFB6
:104690009EBD0DB407FEFDCF8EB54FCF3F73C32E29
:1046A000D12CE12CF12C402F50E060E070E0CB01E8
:1046B000BA016F5F7F4F8F4F9F4F7601DD24CC246F
:1046C0006C0D7D1D8E1D9F1D30E0322F2227620F45
:1046D000731F811D911D5AE0660F771F881F991F58
:1046E0005A95D1F794CF84E0B8CE8A3021F48DE08A
:1046F0000E94D1258AE00C94D125CF93DF93EC0161
:10470000FE0184912196811103C0DF91CF9108951C
:104710000E947523F5CF4F925F926F927F92AF9276
:10472000BF92CF92DF92EF92FF920F931F93CF939E
:10473000DF93CDB7DEB760970FB6F894DEBF0FBE3C
:10474000CDBFFE01B196219131918F0169014FEFEB
:10475000C41AD40AF90184918532A1F57901F2E0F5
:10476000EF0EF11CF601B4908B2D8F7E803291F507
:10477000A9014D5F5F4FF701849190EDA92EA80E1E
:10478000FAE0AF1658F582E0E80EF11CFA018491C8
:10479000982F9F7D9C3409F0B7C06701FFEFCF1AB7
:1047A000DF0AF7018491833609F445C010F583359B
:1047B00009F447C0B0F48334F1F1843409F450C0F3
:1047C00076011FC0811509F4CCC00E9475237601C3
:1047D0009701BCCF8B2DA12CB12CDACF7A01A12C63
:1047E000D7CF853599F0883559F7F80180E190E009
:1047F00010C0853759F040F4843691F17601833743
:1048000009F10E947523E4CF8837EECFF8018AE0E2
:1048100090E00C5F1F4F4080518062807380760172
:1048200035C0F8018AE090E00E5F1F4F4080518054
:10483000612C712C2BC07601D8018C910E5F1F4F1B
:10484000E0CF7601F801C080D1800E5F1F4FF601E6
:1048500081916F01811509F4BBCF0E947523F7CFB9
:10486000F80141905190619071908F0177FE0BC0DB
:104870007094609450944094411C511C611C711CB4
:104880008DE20E94D12576018AE090E01C866E01BF
:10489000FCE0CF0ED11C9C0140E050E02D873E870C
:1048A0004F87588BC301B2012D853E854F855889AE
:1048B0000E94512680E3860F8A3310F087E3860F2B
:1048C000D6018E936D01A110AA948D859E85AF852A
:1048D000B889481659066A067B0688F48A2DF601BF
:1048E000815080F4CA18D108D6018C91811509F441
:1048F0006FCF0E9475239FEFC91AD90AF5CF2901FE
:104900003A01D0CFB292ECCF833609F495CFF0F4D0
:10491000833509F497CF80F4833409F48DCF843440
:1049200009F06FCFF80141905190052C000C6608FA
:1049300077088F0167019ACF853509F472CF8835E2
:1049400009F05FCFF80180E190E06ECF833709F482
:1049500079CF10F48436E4CF853709F462CF8837F5
:10496000EFCF60960FB6F894DEBF0FBECDBFDF91DC
:10497000CF911F910F91FF90EF90DF90CF90BF905C
:10498000AF907F906F905F904F9008954F925F929D
:104990006F927F928F929F92AF92BF92CF92DF924F
:1049A000EF92FF92CF9320911C26211579F080E0A1
:1049B000CF91FF90EF90DF90CF90BF90AF909F90FE
:1049C0008F907F906F905F904F9008950E941F1876
:1049D000853069F7C0903726D0903826E090392688
:1049E000F0903A2610921D2610921E2610921F2635
:1049F0001092202681E080931C2680914928909176
:104A00004A28A0914B28B0914C28C816D906EA062E
:104A1000FB0608F04AC0C701B6010E941F1CC62F42
:104A2000862E972E5C0190913E26882D8C1B89172F
:104A300038F0C701B6010E94551B6B017C01DDCF28
:104A40004EE558E2C501B4010E943B214091212668
:104A500050912226609123267091242680911D2654
:104A600090911E26A0911F26B09120262A013B017D
:104A7000481A590A6A0A7B0A20E032E0E1E04E1641
:104A8000E2E05E0661047104A0F40196A11DB11D6F
:104A9000481759076A077B0761F440931D26509316
:104AA0001E2660931F267093202610921C2681E0FC
:104AB0007FCF2150304011F79E5FAF4FBF4F8093A3
:104AC0001D2690931E26A0931F26B09320268FEFBD
:104AD000881A980AA80AB80AA6CF8F938FB78F931F
:104AE0008BB78F93EF93FF938091C60080937E2ABC
:104AF0008091802A803180F4E091802A81E08E0FBD
:104B00008093802A80917F2AE80FEF70F0E08091F7
:104B10007E2AEF57F54D8083FF91EF918F918BBFE8
:104B20008F918FBF8F9118951F921FB61F921124DE
:104B30008F938BB78F93EF93FF93E1ECF0E080813D
:104B4000877F808310927D2AFF91EF918F918BBF99
:104B50008F911F901FBE1F9018958091802A8115FC
:104B6000E1F38091C1008F778093C1008091802A0A
:104B700081508093802AE0917F2A81E08E0F80937C
:104B80007F2AF0E0EF57F54D808190917F2A903198
:104B900010F010927F2A9091C10090689093C1000C
:104BA000089590917D2A9130E1F39091C100986031
:104BB0009093C1008093C60081E080937D2A089580
:104BC000CF93DF93EC018991811103C0DF91CF91E5
:104BD00008958A3021F48DE00E94D1258AE00E9458
:104BE000D125CE01EFCFCF93DF93EC01FE0184916D
:104BF000811103C0DF91CF9108958A3021F48DE0B7
:104C00000E94D1258AE00E94D1252196EFCF1092F3
:104C10007F2A1092802A10927D2A519A599A88ED03
:104C20008093C10086E08093C2001092C5008BE3A0
:104C30008093C4000895CF93C82F82958F70C03A97
:104C400058F4805D0E94D1258C2F8F708A3030F40B
:104C5000805DCF910C94D125895CF4CF895CF9CF2C
:104C600080E181B914B817B81AB88BEE82B98FEF0A
:104C700085B988B98BB90E941E010E9426010E9445
:104C8000620A0E949B090E94630180E091E0909378
:104C9000942A8093932A78940E94E20880E090E01E
:104CA0000895A1E21A2EAA1BBB1BFD010DC0AA1F6D
:104CB000BB1FEE1FFF1FA217B307E407F50720F085
:104CC000A21BB30BE40BF50B661F771F881F991F00
:104CD0001A9469F760957095809590959B01AC0149
:104CE000BD01CF010895052E97FB1EF400940E948C
:104CF0008A2657FD07D00E94512607FC03D04EF4A8
:104D00000C948A2650954095309521953F4F4F4FF2
:104D10005F4F089590958095709561957F4F8F4F67
:104D20009F4F0895A29FB001B39FC001A39F700D34
:104D3000811D1124911DB29F700D811D1124911DA3
:104D400008950E949226A59F900DB49F900DA49F58
:104D5000800D911D112408959111089581568A5155
:104D600008F4805285580895DC0101C06D934150CC
:104D70005040E0F70895FB01DC018D91019080190E
:104D80000110D9F3990B0895FB01DC0101900D92FC
:104D90000020E1F70895DC016C9161546A3108F05C
:104DA00060526F596D93C1F70895FB01DC014150CA
:104DB000504088F08D9181341CF08B350CF4805E6E
:104DC000619161341CF06B350CF4605E861B6111DF
:104DD00071F3990B0895881BFCCFFB01DC01415056
:104DE000504030F08D910190801919F40020B9F7EE
:104DF000881B990B0895FB01DC014150504048F09D
:104E000001900D920020C9F701C01D924150504001
:104E1000E0F70895DC016C9161566A3108F0605E3C
:104E20006F5B6D93C1F70895BB27FB015527AA2738
:104E3000880F991FAA1FA41710F0A41B8395505127
:104E4000B9F7A05DAA3308F0A95DA193009779F79F
:104E5000B111B1931192CB010C949D29CF93DF93A3
:104E6000CDB7DEB7AE014B5F5F4FFA016191719133
:104E7000AF018091932A9091942A0E947427DF9128
:104E8000CF9108956091932A7091942A0C94AD2942
:104E90000F931F93CF93DF93E091932AF091942A7D
:104EA000238100E010E021FD0EC00FEF1FEFC801CD
:104EB000DF91CF911F910F9108950995892B11F0E2
:104EC0000FEF1FEFCE01EC0189916091932A709151
:104ED000942ADB011896ED91FC918111EECF8AE0C6
:104EE0000995892B21F3E1CF3F924F925F926F9208
:104EF0007F928F929F92AF92BF92CF92DF92EF926A
:104F0000FF920F931F93CF93DF93CDB7DEB72B970D
:104F10000FB6F894DEBF0FBECDBF6C017B018A01D6
:104F2000FC0117821682838181FFEEC19AE0492E2F
:104F3000F6012381F70123FD859123FF81917F01F4
:104F4000811509F41FC1853239F423FD959123FFA2
:104F500091917F01953229F4B60190E00E94AD292C
:104F6000E7CF30E0612C512C712CF0E27F1640F538
:104F70009B32D9F058F49032D1F09332F1F09E3256
:104F800099F576FCFFC0689476F806C09D3291F0E2
:104F90009033C1F4689470F8F70123FD959123FFD5
:104FA00091917F019111E1CF29C0689471F86894C3
:104FB00072F8F2CF689473F8EFCF689474F8ECCF7E
:104FC00077FC1CC080ED890F8A30C8F676FE05C0DC
:104FD000649C800D1124682EDFCF549C800D112419
:104FE000582E689475F8D8CF9C3619F4689477F8E1
:104FF000D3CF9C3409F44BC0983671F2892F8F7D42
:105000008554833008F445C0933609F466C093375D
:1050100009F469C0933509F475C0943619F09936CE
:1050200009F09FC0F80177FE95C06191719181915F
:1050300091918F01272D2F76722E97FF09C09095A1
:105040008095709561957F4F8F4F9F4F689477F84B
:105050002AE030E0AE014F5F5F4F5A010E94DD2928
:105060008A19A82E76FED9C0872D8E7FA61408F047
:10507000D3C074FE26C172FC1AC1F72DFE7E7F2EAE
:10508000B62C872D8678811509F4D4C015C131E07E
:1050900083CF3115F9F0085F1F4F8FE38983882490
:1050A0008394912CAE014F5F5F4F5A01E89477F8DB
:1050B00073FC03C085149104B0F181149104D1F5FF
:1050C000511409F435CFB60180E290E00E94AD2979
:1050D0005A94F6CF0C5F1F4FE0CFF801808189838F
:1050E0000E5F1F4FDCCFF801A190B1908F01662DAC
:1050F00070E076FC02C06FEF7FEFC5010E9492293D
:105100004C01D4CFF801A190B1908F01662D70E0D1
:1051100076FC02C06FEF7FEFC5010E9487294C012A
:10512000689477F8C5CFB60180E290E00E94AD297F
:105130005A94C0CFF50177FC859177FE81915F018C
:10514000B60190E00E94AD2951105A94F1E08F1AF7
:105150009108B3CF61917191072E000C880B990BC8
:1051600068CF372CE89434F82AE030E09537D9F14D
:10517000572D597F352E903739F1F8F4983549F18C
:105180009F3679F1F601868197812B960FB6F894B8
:10519000DEBF0FBECDBFDF91CF911F910F91FF906A
:1051A000EF90DF90CF90BF90AF909F908F907F90C7
:1051B0006F905F904F903F900895983719F774FC67
:1051C00005C020E130E00FC0689434F8689432F8EC
:1051D000F8CF74FE03C0872D8660382E20E132E0C0
:1051E00002C028E030E0F80137FE11C061917191F2
:1051F000819191918F01FE0131965F01AF010E9473
:10520000DD298A19A82E732CE89477F82BCF6191A9
:10521000719180E090E0EECF782EBA2C74FE31CF01
:10522000FE01EA0DF11D8081803309F043C0272D76
:10523000297E722E73FC0EC070FE4FC06A2CB5140E
:1052400018F4650C6B18B52C852D8B195B1408F4BC
:1052500080E0B80EB51408F042C05B1874FE41C07F
:10526000B60180E390E00E94AD2972FE09C088E596
:1052700090E071FC02C088E790E0B6010E94AD2981
:10528000A614D8F1AA94B12C4FEFA41AB40ACE01F7
:1052900001963C01A80EB91EF50182915F01B6018D
:1052A00090E00E94AD296A147B04B1F709CFB62CB7
:1052B000782EB6CF72FC02C0B394BCCFB394B39433
:1052C000B9CFB62C782EDDCEB60180E290E00E94F8
:1052D000AD2933943514C0F3B7CF3B2CFBCF512C01
:1052E000BDCF872D8678811559F280E271FC8BE263
:1052F00077FC8DE2B60190E0C1CFB60180E390E08B
:105300000E94AD296A94BCCF8FEF9FEF3ECFFC0186
:105310000590615070400110D8F7809590958E0FE0
:105320009F1F0895FC016150704001900110D8F753
:10533000809590958E0F9F1F0895DC01FC01672FCB
:1053400071917723E1F7329704C07C916D9370835C
:105350006291AE17BF07C8F308950F931F93CF93C1
:10536000DF93182F092FEB018B8181FD09C01FEFFF
:105370000FEF812F902FDF91CF911F910F91089503
:1053800082FF14C02E813F818C819D8128173907AF
:105390003CF4E881F981CF010196998388831083D9
:1053A0008E819F8101969F838E83E3CFE885F98567
:1053B000812F0995892BA1F3DACFFA01AA2728308A
:1053C00051F1203181F1E8946F936E7F6E5F7F4FD2
:1053D0008F4F9F4FAF4FB1E03ED0B4E03CD0670F4E
:1053E000781F891F9A1FA11D680F791F8A1F911DA1
:1053F000A11D6A0F711D811D911DA11D20D009F4F1
:1054000068943F912AE0269F11243019305D319332
:10541000DEF6CF010895462F4770405D4193B3E01B
:105420000FD0C9F7F6CF462F4F70405D4A3318F0C2
:10543000495D31FD4052419302D0A9F7EACFB4E073
:10544000A6959795879577956795BA95C9F700972B
:105450006105710508959B01AC010A2E06945795CC
:10546000479537952795BA95C9F7620F731F841F23
:0A547000951FA01D0895F894FFCFCA
:10547A0000000002000000003B01000000002020A4
:10548A002020202020202020202020003E0080C034
:10549A0090D00D0A4B43383520446174612052651F
:1054AA00636F726465720D0056657273696F6E2060
:1054BA00312E30422032352D4D61792D3230313541
:1054CA00206279204D2E4265726765720D00436F26
:1054DA006D6D616E6473204F766572766965773A91
:1054EA000D0A0D002044205B616464725D20202057
:1054FA0020202020202044756D70204D656D6F722C
:10550A0079204865782B41534349490D00202E20C4
:10551A00202020202020202020202020202020534E
:10552A00746F702046696C652044756D700D00209B
:10553A00452020202020202020202020202020203C
:10554A00204572617365207265636F7264206D65B0
:10555A006D6F72790D002046202020202020202007
:10556A0020202020202020207475726E20636F6E08
:10557A0074726F6C206F76657220746F2064657622
:10558A0069636527732046696C65204469616C6F9D
:10559A006775650D00205020202020202020202023
:1055AA0020202020202020506C61790D00205220DC
:1055BA0020202020202020202020202020202052AF
:1055CA0065636F72640D00203F2020202020202078
:1055DA00202020202020202020446973706C6179CB
:1055EA002074686973206F766572766965770D0035
:1055FA0020202020202020202020202020202020A1
:10560A0000C34B432D544150452062792041462E18
:10561A002000626C6B20202020202020004B433881
:10562A0035205265636F72646572002D2D2D2D2D04
:10563A002D2D2D2D2D2D2D2D004669726D77617220
:10564A00652056657273696F6E00312E30422032C2
:10565A00352D4D61792D32303135005245434F5247
:10566A004420455252210053442D4361726420451F
:10567A007272210052656320506C617920456E6414
:10568A002044495200203D3D3E204D656E75203133
:10569A00003E0059657320204E6F202020202020D4
:1056AA002020200044656C6574652046696C653F5E
:1056BA000044656C204C6F616420446F776E2055FE
:1056CA007000746170006B6363006B636200524C1C
:1056DA004500204E6F2046696C657320666F756EB3
:1056EA00640020202020202020202E63737700438E
:1056FA006F6D70726573736564205371756172653D
:10570A002057617665004B432D5265636F7264655D
:0A571A007220202020002E2E000037
:00000001FF
